:10000000CC0B0020AD1A0000A51A0000A71A0000B2
:10001000A91A0000A91A0000A91A00000000000097
:10002000000000000000000000000000A91A00000D
:10003000A91A000000000000A91A0000A91A000077
:10004000A91A0000A91A0000A91A0000A91A0000A4
:10005000A91A0000A91A0000A91A0000A91A000094
:10006000A91A0000A91A0000A91A0000A91A000084
:10007000A91A0000A91A0000A91A0000A91A000074
:10008000A91A0000A91A0000A91A0000A91A000064
:10009000A91A0000A91A0000A91A0000A91A000054
:1000A000A91A0000A91A0000A91A0000A91A000044
:1000B000A91A0000A91A0000A91A0000A91A000034
:1000C000A91A0000A91A0000A91A0000A91A000024
:1000D000A91A0000A91A0000A91A0000A91A000014
:1000E000A91A00000000000000000000A91A00008A
:1000F000A91A0000A91A0000A91A0000A91A0000F4
:10010000A91A0000A91A0000A91A0000A91A0000E3
:100110000000000000000000A91A0000A91A000059
:10012000A91A0000A91A0000A91A0000A91A0000C3
:10013000A91A0000A91A0000A91A0000A91A0000B3
:1001400000000000000000000000000000000000AF
:10015000A91A0000A91A0000A91A0000A91A000093
:10016000000000000000000000000000000000008F
:10017000000000000000000000000000000000007F
:10018000000000000000000000000000000000006F
:10019000000000000000000000000000000000005F
:1001A000000000000000000000000000000000004F
:1001B000A91A0000A91A0000A91A0000A91A000033
:1001C000A91A0000A91A0000A91A0000A91A000023
:1001D000A91A0000A91A0000A91A0000A91A000013
:1001E000A91A0000A91A0000A91A000000000000C6
:1001F00000000000A91A0000A91A0000A91A0000B6
:10020000A91A0000A91A0000000000000000000068
:10021000A91A0000A91A0000A91A0000A91A0000D2
:10022000A91A0000A91A0000A91A0000A91A0000C2
:10023000A91A0000A91A0000A91A0000A91A0000B2
:10024000A91A0000A91A0000A91A0000A91A0000A2
:10025000A91A0000A91A0000A91A0000A91A000092
:0C026000A91A0000A91A0000A91A000049
:1002800010B5054C237833B9044B13B10448AFF3D0
:1002900000800123237010BDB00900200000000081
:1002A0006057000008B5034B1BB103490348AFF387
:1002B000008008BD00000000B40900206057000065
:1002C00001F0FF01102A2BDB10F0070F08D010F807
:1002D000013B013A8B422DD010F0070F42B3F6D10B
:1002E000F0B441EA012141EA014122F007047FF024
:1002F00000070023F0E80256083C85EA010586EA7B
:10030000010685FA47F5A3FA87F586FA47F6A5FAB6
:1003100087F68EB9EED1F0BC01F0FF0102F00702C2
:1003200032B110F8013B013A83EA010313B1F8D16D
:100330000020704701387047002D06BF354603384E
:10034000073815F0010F07D1013015F4807F02BF87
:10035000013015F4C03F0130F0BC0138704700BFD8
:10036000844641EA000313F003036DD1403A41D3C0
:1003700051F8043B40F8043B51F8043B40F8043B7F
:1003800051F8043B40F8043B51F8043B40F8043B6F
:1003900051F8043B40F8043B51F8043B40F8043B5F
:1003A00051F8043B40F8043B51F8043B40F8043B4F
:1003B00051F8043B40F8043B51F8043B40F8043B3F
:1003C00051F8043B40F8043B51F8043B40F8043B2F
:1003D00051F8043B40F8043B51F8043B40F8043B1F
:1003E00051F8043B40F8043B51F8043B40F8043B0F
:1003F000403ABDD2303211D351F8043B40F8043BAF
:1004000051F8043B40F8043B51F8043B40F8043BEE
:1004100051F8043B40F8043B103AEDD20C3205D3BE
:1004200051F8043B40F8043B043AF9D2043208D0B6
:10043000D2071CBF11F8013B00F8013B01D30B8828
:1004400003806046704700BF082A13D38B078DD006
:1004500010F003038AD0C3F10403D21ADB071CBFD8
:1004600011F8013B00F8013B80D331F8023B20F842
:10047000023B7BE7043AD9D3013A11F8013B00F87B
:10048000013BF9D20B7803704B7843708B78837003
:1004900060467047000000000000000000000000FF
:1004A000000000000000000000000000000000004C
:1004B000000000000000000000000000000000003C
:1004C00090F800F06DE9024520F007016FF0000C94
:1004D00010F0070491F820F040F049804FF000043C
:1004E0006FF00700D1E9002391F840F000F1080017
:1004F00082FA4CF2A4FA8CF283FA4CF3A2FA8CF34F
:100500004BBBD1E9022382FA4CF200F10800A4FAB5
:100510008CF283FA4CF3A2FA8CF3E3B9D1E9042309
:1005200082FA4CF200F10800A4FA8CF283FA4CF340
:10053000A2FA8CF37BB9D1E9062301F1200182FAFA
:100540004CF200F10800A4FA8CF283FA4CF3A2FA00
:100550008CF3002BC6D0002A04BF04301A4612BA0E
:10056000B2FA82F2FDE8024500EBD2007047D1E911
:10057000002304F00305C4F100004FEAC50514F0A0
:10058000040F91F840F00CFA05F562EA05021CBF71
:1005900063EA050362464FF00004A9E781F00041D9
:1005A00002E000BF83F0004330B54FEA41044FEA58
:1005B000430594EA050F08BF90EA020F1FBF54EAF3
:1005C000000C55EA020C7FEA645C7FEA655C00F08F
:1005D000E2804FEA5454D4EB5555B8BF6D420CDD60
:1005E0002C4480EA020281EA030382EA000083EAE3
:1005F000010180EA020281EA0303362D88BF30BD83
:1006000011F0004F4FEA01314FF4801C4CEA1131D8
:1006100002D0404261EB410113F0004F4FEA033337
:100620004CEA133302D0524263EB430394EA050FC2
:1006300000F0A780A4F10104D5F1200E0DDB02FA31
:100640000EFC22FA05F2801841F1000103FA0EF2C5
:10065000801843FA05F359410EE0A5F120050EF18B
:10066000200E012A03FA0EFC28BF4CF0020C43FABC
:1006700005F3C01851EBE37101F0004507D54FF0C9
:10068000000EDCF1000C7EEB00006EEB0101B1F519
:10069000801F1BD3B1F5001F0CD349085FEA30005F
:1006A0004FEA3C0C04F101044FEA445212F5800F6A
:1006B00080F09A80BCF1004F08BF5FEA500C50F107
:1006C000000041EB045141EA050130BD5FEA4C0CEA
:1006D000404141EB010111F4801FA4F10104E9D173
:1006E00091F0000F04BF01460020B1FA81F308BF6A
:1006F0002033A3F10B03B3F120020CDA0C3208DD36
:1007000002F1140CC2F10C0201FA0CF021FA02F110
:100710000CE002F11402D8BFC2F1200C01FA02F180
:1007200020FA0CFCDCBF41EA0C019040E41AA2BFA5
:1007300001EB0451294330BD6FEA04041F3C1CDA6D
:100740000C340EDC04F11404C4F1200220FA04F08D
:1007500001FA02F340EA030021FA04F345EA030137
:1007600030BDC4F10C04C4F1200220FA02F001FAF9
:1007700004F340EA0300294630BD21FA04F029467B
:1007800030BD94F0000F83F4801306BF81F4801114
:100790000134013D4EE77FEA645C18BF7FEA655C87
:1007A00029D094EA050F08BF90EA020F05D054EA59
:1007B000000C04BF1946104630BD91EA030F1EBF5E
:1007C0000021002030BD5FEA545C05D14000494162
:1007D00028BF41F0004130BD14F580043CBF01F555
:1007E000801130BD01F0004545F0FE4141F470013B
:1007F0004FF0000030BD7FEA645C1ABF1946104616
:100800007FEA655C1CBF0B46024650EA013406BF16
:1008100052EA033591EA030F41F4002130BD00BFD5
:1008200090F0000F04BF0021704730B54FF4806492
:1008300004F132044FF000054FF0000150E700BF13
:1008400090F0000F04BF0021704730B54FF4806472
:1008500004F1320410F0004548BF40424FF000015F
:100860003EE700BF42004FEAE2014FEA31014FEAA2
:1008700002701FBF12F07F4393F07F4F81F06051F1
:10088000704732F07F4208BF704793F07F4F04BF3C
:1008900041F40021704730B54FF4607401F0004519
:1008A00021F000411CE700BF50EA010208BF704779
:1008B00030B54FF000050AE050EA010208BF70476A
:1008C00030B511F0004502D5404261EB41014FF4D3
:1008D000806404F132045FEA915C3FF4D8AE4FF0DB
:1008E00003025FEADC0C18BF03325FEADC0C18BFBE
:1008F000033202EBDC02C2F1200300FA03FC20FA0F
:1009000002F001FA03FE40EA0E0021FA02F114445B
:10091000BDE600BF70B54FF0FF0C4CF4E06C1CEA74
:1009200011541DBF1CEA135594EA0C0F95EA0C0FE5
:1009300000F0DEF82C4481EA030621EA4C5123EA58
:100940004C5350EA013518BF52EA033541F4801187
:1009500043F4801338D0A0FB02CE4FF00005E1FB3A
:1009600002E506F00042E0FB03E54FF00006E1FB84
:1009700003569CF0000F18BF4EF0010EA4F1FF04C7
:10098000B6F5007F64F5407404D25FEA4E0E6D4107
:1009900046EB060642EAC62141EA55514FEAC52018
:1009A00040EA5E504FEACE2EB4F1FD0C88BFBCF594
:1009B000E06F1ED8BEF1004F08BF5FEA500E50F145
:1009C000000041EB045170BD06F0004646EA01010B
:1009D00040EA020081EA0301B4EB5C04C2BFD4EB3D
:1009E0000C0541EA045170BD41F480114FF0000E36
:1009F000013C00F3AB8014F1360FDEBF002001F0A4
:100A0000004170BDC4F10004203C35DA0C341BDC1D
:100A100004F11404C4F1200500FA05F320FA04F0EF
:100A200001FA05F240EA020001F0004221F0004123
:100A300010EBD37021FA04F642EB06015EEA430E96
:100A400008BF20EAD37070BDC4F10C04C4F12005C6
:100A500000FA04F320FA05F001FA04F240EA020079
:100A600001F0004110EBD37041F100015EEA430E4A
:100A700008BF20EAD37070BDC4F1200500FA05F26A
:100A80004EEA020E20FA04F301FA05F243EA0203E9
:100A900021FA04F001F0004121FA04F220EA0200F8
:100AA00000EBD3705EEA430E08BF20EAD37070BD3E
:100AB00094F0000F0FD101F00046400041EB01011E
:100AC00011F4801F08BF013CF7D041EA060195F000
:100AD000000F18BF704703F00046520043EB0303BA
:100AE00013F4801F08BF013DF7D043EA06037047A7
:100AF00094EA0C0F0CEA135518BF95EA0C0F0CD0B2
:100B000050EA410618BF52EA4306D1D181EA0301F7
:100B100001F000414FF0000070BD50EA410606BFF1
:100B20001046194652EA430619D094EA0C0F02D136
:100B300050EA013613D195EA0C0F05D152EA03367B
:100B40001CBF104619460AD181EA030101F0004199
:100B500041F0FE4141F470014FF0000070BD41F0E2
:100B6000FE4141F4780170BD70B54FF0FF0C4CF4BC
:100B7000E06C1CEA11541DBF1CEA135594EA0C0FDB
:100B800095EA0C0F00F0A7F8A4EB050481EA030E28
:100B900052EA03354FEA013100F088804FEA03330F
:100BA0004FF0805545EA131343EA12634FEA0222DD
:100BB00045EA111545EA10654FEA00260EF000419E
:100BC0009D4208BF964244F1FD0404F5407402D2F0
:100BD0005B084FEA3202B61A65EB03055B084FEA81
:100BE00032024FF480104FF4002CB6EB020E75EB7E
:100BF000030E22BFB61A754640EA0C005B084FEAA6
:100C00003202B6EB020E75EB030E22BFB61A754622
:100C100040EA5C005B084FEA3202B6EB020E75EB6D
:100C2000030E22BFB61A754640EA9C005B084FEAE5
:100C30003202B6EB020E75EB030E22BFB61A7546F2
:100C400040EADC0055EA060E18D04FEA051545EAE1
:100C500016754FEA06164FEAC30343EA52734FEA8A
:100C6000C2025FEA1C1CC0D111F4801F0BD141EA03
:100C700000014FF000004FF0004CB6E711F4801F68
:100C800004BF01430020B4F1FD0C88BFBCF5E06F48
:100C90003FF6AFAEB5EB030C04BFB6EB020C5FEA58
:100CA000500C50F1000041EB045170BD0EF0004EAD
:100CB0004EEA113114EB5C04C2BFD4EB0C0541EADF
:100CC000045170BD41F480114FF0000E013C90E6DC
:100CD00045EA060E8DE60CEA135594EA0C0F08BFA0
:100CE00095EA0C0F3FF43BAF94EA0C0F0AD150EA9F
:100CF00001347FF434AF95EA0C0F7FF425AF104632
:100D000019462CE795EA0C0F06D152EA03353FF459
:100D1000FDAE1046194622E750EA410618BF52EAD6
:100D200043067FF4C5AE50EA41047FF40DAF52EAAA
:100D300043057FF4EBAE12E74FF0FF3C06E000BF47
:100D40004FF0010C02E000BF4FF0010C4DF804CD54
:100D50004FEA410C7FEA6C5C4FEA430C18BF7FEA14
:100D60006C5C1BD001B050EA410C0CBF52EA430C42
:100D700091EA030F02BF90EA020F0020704710F1C2
:100D8000000F91EA030F58BF994208BF90422CBF51
:100D9000D8176FEAE37040F0010070474FEA410C4A
:100DA0007FEA6C5C02D150EA013C07D14FEA430C68
:100DB0007FEA6C5CD6D152EA033CD3D05DF8040BD9
:100DC000704700BF8446104662468C46194663460B
:100DD00000E000BF01B5FFF7B7FF002848BF10F1E2
:100DE000000F01BD4DF808EDFFF7F4FF0CBF012027
:100DF00000205DF808FB00BF4DF808EDFFF7EAFFA3
:100E000034BF012000205DF808FB00BF4DF808ED5D
:100E1000FFF7E0FF94BF012000205DF808FB00BF52
:100E20004DF808EDFFF7CEFF94BF012000205DF8DC
:100E300008FB00BF4DF808EDFFF7C4FF34BF0120E9
:100E400000205DF808FB00BF4FEA410C7FEA6C5CB4
:100E500002D150EA013C0AD14FEA430C7FEA6C5CB4
:100E600002D152EA033C02D14FF0000070474FF02C
:100E7000010070474FEA410212F5001215D211D558
:100E80006FF47873B3EB625212D94FEAC12343F087
:100E9000004343EA505311F0004F23FA02F018BF09
:100EA000404270474FF00000704750EA013005D1D2
:100EB00011F0004008BF6FF0004070474FF0000095
:100EC000704700BF53B94AB9002908BF00281CBFAA
:100ED0004FF0FF314FF0FF3000F072B9ADF1080C68
:100EE0006DE904CE00F006F8DDF804E0DDE9022348
:100EF00004B070472DE9F047089E04468846002B51
:100F00004BD18A42154667D9B2FA82F24AB1C2F190
:100F1000200701FA02F320FA07F7954047EA030891
:100F200094404FEA154E230CB8FBFEF71FFA85FCE0
:100F30000EFB178843EA084307FB0CF1994209D9D5
:100F4000EB1807F1FF3080F01B81994240F21881C5
:100F5000023F2B445B1AA4B2B3FBFEF00EFB10332E
:100F600044EA034400FB0CFCA44509D92C1900F108
:100F7000FF3380F00781A44540F2048102382C44FD
:100F800040EA0740A4EB0C0400271EB1D440002324
:100F9000C6E900433946BDE8F0878B4209D9002EE7
:100FA00000F0EB800027C6E9000138463946BDE86D
:100FB000F087B3FA83F7002F47D18B4202D38242E6
:100FC00000F2FA80841A61EB030301209846002E98
:100FD000E0D0C6E90048DDE702B9FFDEB2FA82F2EE
:100FE000002A40F08F80491B4FEA154E1FFA85F802
:100FF0000127B1FBFEFC230C0EFB1C1143EA01434D
:1010000008FB0CF1994207D9EB180CF1FF3002D222
:10101000994200F2CD808446591AA3B2B1FBFEF08A
:101020000EFB101443EA044408FB00F8A04507D95E
:101030002C1900F1FF3302D2A04500F2B680184609
:10104000A4EB080440EA0C409FE7C7F1200CBB402A
:1010500022FA0CFE4EEA030E01FA07F420FA0CF510
:1010600021FA0CF34FEA1E482543B3FBF8F92C0C88
:1010700008FB19331FFA8EFA44EA034309FB0AF40A
:101080009C4202FA07F200FA07F10BD91EEB0303A8
:1010900009F1FF3080F087809C4240F28480A9F102
:1010A000020973441B1BADB2B3FBF8F008FB10330D
:1010B00045EA034400FB0AFAA24508D91EEB0404E2
:1010C00000F1FF336BD2A24569D90238744440EA7B
:1010D0000940A0FB0289A4EB0A044C45C2464B46DA
:1010E00054D351D0002E69D0B1EB0A0564EB030450
:1010F00004FA0CFCFD40FC404CEA0505C6E900542E
:10110000002747E7C2F1200320FA03F7954001FAD0
:1011100002F021FA03F34FEA154E3843010CB3FBFA
:10112000FEF71FFA85F80EFB173341EA034107FB70
:1011300008F38B4204FA02F407D9691807F1FF3C5F
:101140002FD28B422DD9023F2944CB1A81B2B3FB57
:10115000FEF00EFB103341EA034100FB08F38B4223
:1011600007D9691800F1FF3C17D28B4215D9023814
:101170002944C91A40EA07473BE73746304609E7A2
:101180000746E7E61846FBE64145ABD2B8EB020A54
:1011900069EB0E0201381346A4E76046E9E71846FA
:1011A00095E76746D1E781467CE702382C4447E75C
:1011B000ACF1020C2B442FE7384608E73746E9E646
:1011C000704700BF1C4A136843F0100313601B4BA9
:1011D0001B6813F0100FFAD0194B1A4A1A600F222D
:1011E00004331A60002318490B6004310B60A1F529
:1011F00096710B6020310B60144B1A600E4A136815
:1012000043F0080313600D4B1B6813F0080FFAD06E
:101210000F4B0C4A1A600F230E4A136000220E492E
:101220000A6004310A60A1F596710B6020310A60F2
:101230000A4A1360704700BF08E60F4008EA0F40F3
:10124000204502404B434F4C284502401C4502407C
:101250002075004024750040287500401C75004032
:10126000054B01221A600023044A13600832136000
:1012700010321360704700BF0470004008700040D7
:101280000023054A13600432022111600832136002
:1012900010321360704700BF047000400023054AFD
:1012A000136004321360083204211160103213609D
:1012B000704700BF047000400023054A13600432E9
:1012C000136008321360034B08221A60704700BF96
:1012D000047000402070004008B5FFF7C1FF424B8A
:1012E0001B68012B67D0414B1B68022B65D0404B1C
:1012F0001B68042B63D03F4B1B68082B61D0FFF7A2
:10130000BFFF394B1B68012B5DD0384B1B68022B8C
:101310005BD0374B1B68042B59D0364B1B68082B0E
:1013200057D0FFF7BBFF304B1B68012B53D02F4B1F
:101330001B68022B51D02E4B1B68042B4FD02D4B1A
:101340001B68082B4DD0FFF7B7FF274B1B68012BFD
:1013500011D0264B1B68022B13D0234B1B68012B8B
:1013600015D0224B1B68022B17D0214B1B68042B76
:1013700019D0652020E01F4B1B68082BE9D12A20DB
:101380001AE01C4B1B68082BE7D12F2014E0194BE7
:101390001B68082BE5D02B200EE0164B1B68082B92
:1013A000E3D02D2008E0134B1B68082B01D03D2013
:1013B00002E0652000E0312008BD3420FCE7372042
:1013C000FAE77820F8E73220F6E73520F4E738200E
:1013D000F2E73020F0E73320EEE73620ECE7392063
:1013E000EAE74320E8E700BF04400240084002402B
:1013F00010400240204002401D4A136843F00103A0
:1014000013601C4B1B6813F0010FFAD01A4B1B4AD8
:101410001A600C231A4A136000221A490A60043128
:101420000A60A1F596710B6020310A60164A1360BC
:1014300002F57A22EC32136843F0020313600D4B7D
:101440001B6813F0020FFAD0104B0C4A1A60F023FD
:101450000F4A136000220F490A6004310A60A1F5A7
:1014600096710B6020310A600B4A1360704700BF11
:1014700008E60F4008EA0F40204500404B434F4C20
:1014800024450040284500401C45004020550040B0
:1014900024550040285500401C55004010B5064C0E
:1014A000236843F004032360252000F0C1F823687B
:1014B00023F00403236010BDFC43004008B5064A36
:1014C000136823F00803136000F0F000034B18606A
:1014D000FFF7E4FF08BD00BFFC430040FC530040A1
:1014E00038B50446084A136823F00803136000F077
:1014F000F003064D2B60FFF7D1FF2401E4B22C600E
:10150000FFF7CCFF38BD00BFFC430040FC53004058
:1015100038B50446084A136843F00803136000F026
:10152000F003064D2B60FFF7B9FF2401E4B22C60F5
:10153000FFF7B4FF38BD00BFFC430040FC53004040
:1015400008B53020FFF7BAFF3020FFF7B7FF302093
:10155000FFF7B4FF2020FFF7B1FF2820FFF7C0FFFF
:101560000820FFF7BDFF0120FFF7BAFF0620FFF7B5
:10157000B7FF0C20FFF7B4FF8020FFF7B1FF08BDD5
:1015800008B50120FFF7ACFF0220FFF7A9FF08BD57
:1015900038B50546002402E0FFF7BAFF0134285DA4
:1015A0000028F9D138BD0000054B00221A6005491A
:1015B0006FF07F40086004310A6005221A607047AE
:1015C00010E000E014E000E0164B1A6842F0004220
:1015D0001A601A6842F400621A6013490A6822F419
:1015E000F86202F5A8620A601A6822F070021A60B6
:1015F0001A6822F400521A601A6842F080421A6097
:101600001A6822F0FE5202F180721A60074B1B68C2
:1016100013F0400FFAD0034A136823F400631360F9
:10162000704700BF70E00F4060E00F4050E00F4097
:101630000138054B1860043300221A60034B1B6805
:1016400013F4803FFAD0704714E000E010E000E0AF
:1016500008B5FFF741FE0A4B18700A4B1B78652B43
:1016600001D0432B02D1FFF78BFF08BDFFF750FFDE
:101670004CF25030FFF7DCFF014B1878F5E700BF64
:10168000280C00200C0C002008B5FFF725FE0A4BA3
:1016900018700A4B1B78652B01D0432B02D1FFF742
:1016A0006FFF08BDFFF734FF4CF25030FFF7C0FF6B
:1016B000014B1878F5E700BF180C00200C0C002037
:1016C00000B585B03D20FFF723FF084B1A68084995
:1016D00001A800F05DFA01A8FFF75AFF4CF2503064
:1016E000FFF7A6FF05B05DF804FB00BF1C0C00204F
:1016F000D0540000312813D0322813D0332813D00F
:10170000342813D0352813D0362813D0372813D0D7
:10171000382813D0392801D000207047092070479D
:101720000120704702207047032070470420704753
:101730000520704706207047072070470820704733
:1017400010B5FFF7C9FD0B4B1870652801D0432871
:1017500002D1FFF715FF10BDFFF7DAFE054B187831
:10176000FFF7C8FF044C20604CF25030FFF760FFD9
:101770002068F0E70C0C0020140C002010B5FFF7D7
:10178000ABFD0B4B1870652801D0432802D1FFF741
:10179000F7FE10BDFFF7BCFE054B1878FFF7AAFF58
:1017A000044C20604CF25030FFF742FF2068F0E715
:1017B0000C0C0020080C002010B5FFF78DFD0B4B22
:1017C0001870652801D0432802D1FFF7D9FE10BD5B
:1017D000FFF79EFE054B1878FFF78CFF044C206046
:1017E0004CF25030FFF724FF2068F0E70C0C00208B
:1017F000200C002000B585B0FFF76EFD4F4B187030
:101800003D2800F08B80FFF73FFFFFF7D5FF4C4BE3
:101810001B782B2B12D02D2B18D02A2B1ED02A2B25
:101820002BD02A2B38D02F2B47D02F2B55D02F2B16
:1018300063D0FFF745FF05B05DF804FB414A12682D
:10184000414909680A4441490A60E4E73D4A12688F
:101850003D490968521A3D490A60DEE73C4A127860
:101860002B2ADCD13B4A1268374908683A49096893
:1018700000FB021235490A60D1E7354A12782D2A59
:10188000CFD1344A1268304909683348006801FBF7
:1018900012022E490A60C4E72D4A12782F2AC2D1BB
:1018A0002D4A12682B49096892FBF1F1264A126809
:1018B00002FB01F225490A60B5E7254A12782B2A76
:1018C000B3D1244A12682049096892FBF1F22249F7
:1018D00009680A441D490A60A7E71D4A12782D2AA3
:1018E000A5D11C4A12681849096892FBF1F11A4AFD
:1018F0001268521A15490A6099E7154B1B782A2B72
:1019000097D1154B1A68134B1B6803FB02F30E4A61
:10191000126893FBF2F30D4A13608AE7FFF7F8FDB4
:10192000084B1A680D4901A800F032F901A8FFF729
:101930002FFE4CF25030FFF77BFE7CE70C0C0020B2
:10194000180C0020100C0020200C00201C0C002083
:10195000280C0020080C0020140C0020D05400009B
:1019600008B54520FFF7D4FD41F28830FFF760FE4F
:101970004C20FFF7CDFD41F28830FFF759FE45209E
:10198000FFF7C6FD41F28830FFF752FE4320FFF714
:10199000BFFD41F28830FFF74BFE3320FFF7B8FD63
:1019A00041F28830FFF744FE3620FFF7B1FD41F2E7
:1019B0008830FFF73DFE3620FFF7AAFD41F2883060
:1019C000FFF736FE3220FFF7A3FD42F21070FFF75B
:1019D0002FFEFFF7D5FD0548FFF7DAFD4CF250303A
:1019E000FFF726FEFFF7CCFD08BD00BFC85400007E
:1019F00008B5FFF7E9FDFFF7D7FDFFF7FDFCFFF79F
:101A00009FFDFFF7DFFBFFF7ABFF0EE0214B1B68ED
:101A1000214A12681344214A1360FFF7EBFEFFF7D7
:101A2000AFFD4CF25030FFF703FEFFF789FEFFF7E2
:101A30000FFEFFF7A3FE1A4B1B782A3B052BECD8B1
:101A400001A252F823F000BF711A00000D1A000025
:101A50001B1A0000611A00001B1A0000831A000004
:101A60000C4B1B680C4A12689B1A0C4A1360D4E793
:101A7000084B1A68084B1B6803FB02F3074A136004
:101A8000CBE7044B1B68044A126893FBF2F3034A4A
:101A90001360C2E7140C0020080C0020100C00207A
:101AA000280C0020FEE7FEE7FEE7000008B50D4B1E
:101AB0000D4A03E011681960043304320B498B426C
:101AC000F8D30C480C494FF000028842B8BF40F8E8
:101AD000042BFADB064A136843F470031360FFF724
:101AE00087FF08BD0000002060570000B0090020FB
:101AF00088ED00E0B0090020540C0020F0B4860707
:101B000043D0541E002A3ED0CAB2034602E014F16C
:101B1000FF3438D303F8012B9D07F8D1032C2BD9C0
:101B2000CDB245EA05250F2C45EA054516D9A4F1A5
:101B300010073F0903F1200606EB071603F1100218
:101B400042E9045542E902551032B242F8D104F09C
:101B50000F040137032C03EB07130DD91E46224651
:101B6000043A032A46F8045BFAD8221F22F0030243
:101B70000432134404F003042CB1C9B21C4403F82A
:101B8000011B9C42FBD1F0BC704714460346C5E7DD
:101B90000EB430B59CB01FAB0C4C0D4D53F8042B5C
:101BA0000193014602910691206802A96FF000445A
:101BB0000794CDE9044500F00DF8029B00221A704D
:101BC0001CB0BDE8304003B0704700BF00000020EB
:101BD0000802FFFF2DE9F04FC3B00C460C9191466F
:101BE0000F930D9002F0FCF903681A931846FEF764
:101BF00067FCA38919901D0603D52369002B00F00B
:101C000039870023CDE92633CDE916330DF1C80815
:101C100013931593149318931B930A93CDF8948000
:101C2000C246CB469BF80030002B00F09980252B54
:101C30005C4602D11CE0252B03D014F8013F002B99
:101C4000F9D1A4EB0B0585B1DDE9263201332A4435
:101C5000072BCAF800B0CAF80450CDE9263277DC69
:101C60000AF1080A0A9B2B440A932378002B77D0A9
:101C700000231A468DF8773019460B9399464FF09A
:101C8000FF306378099004F1010B0BF1010B1F4643
:101C9000A7F12003582B00F27483DFE813F0D2027F
:101CA00072037203CD027203720372037203720332
:101CB0007203C102BC02720366034C0372036B031E
:101CC000B700B700B700B700B700B700B700B7005C
:101CD000B70072037203720372037203720372031A
:101CE0007203720372033403F6027203F602720384
:101CF000720372037203F10272037203A60072038D
:101D000072037203720372037500720372039A0204
:101D1000720372037203720372037203720372031B
:101D2000720372037B012D01F602F602F60228010E
:101D30002D01720372031B0172030401A800CB0082
:101D4000C6007203DB007203770072037203DA02CB
:101D500025AADDE90C1002F017FF40B9C24681E761
:101D6000279B23B10D980C9925AA02F00DFF0C9B1F
:101D70009B8913F0400F0A9B18BF4FF0FF330A9363
:101D80000A9843B0BDE8F08F49F0100919F0200F10
:101D900000F03B850F9D073525F0070303F108028E
:101DA000D3E900450F920123099A002601328DF8EC
:101DB000776000F03C8429F08002079254EA050223
:101DC00040F0BE80099A002A40F0CF86002B40F0F8
:101DD000EB8419F001030E9300F05D8542AB1A46C7
:101DE000302302F8413D1192CBE049F0100919F07F
:101DF000200300F015850F9D073525F0070303F13B
:101E00000802D3E900450F920023CDE7A7F1300384
:101E100000201BF8017B00EB800003EB4000A7F1E2
:101E20003003092BF5D90B9032E749F020099BF8D4
:101E300000302AE70F9AA24B14681893043247F631
:101E40003003ADF8783049F002090F9200250223E3
:101E50007827A9E70F9A1368119300248DF877402B
:101E6000151D002B00F03086099A531C00F0D8860F
:101E700021461198FEF724FA002800F0B987119B3B
:101E80000994C31A0E930F95CDF81C9023EAE373BF
:101E90009DF8776008931294002E00F08D80089BC7
:101EA0000133089388E0002A41F0D7800F9A19F097
:101EB000200F52F8043B0F9240F02F8519F0100FBD
:101EC00040F0298619F0400F00F02586BDF8282043
:101ED0001A80A7E69BF800306C2B03BF9BF80130FB
:101EE00049F020090BF1010B49F01009CDE649F04A
:101EF00040099BF80030C8E6002A41F09A8019F0AA
:101F0000200F00F009820F9D073525F00703D3E964
:101F1000004503F108020F92002C75F10003C0F296
:101F2000C684099B9DF87760013300F0CB8429F0CB
:101F30008002079254EA05024FF001033FF442AFDA
:101F4000012B00F07983022B00F09983414600E0D9
:101F50001146E20842EA4572E80804F00703054624
:101F60001446303354EA050001F8013C01F1FF3218
:101F7000EED107981192C00700F17084A8EB02031C
:101F80000E93099B0E9A9342B8BF13460893002301
:101F9000129381E70F9900230A688DF877301E4667
:101FA0008DF8A02001230A1DCDE90793CDE90E325B
:101FB00028AB099612961193079B13F00203109316
:101FC00002D0089B02330893079B279C13F08409D7
:101FD0003FD10B9B089A9D1A002D3ADD102D269BB0
:101FE00029DD52462146AA461026DDE90C5406E0BA
:101FF000AAF1100ABAF1100F02F1080218DD01333C
:1020000030481031072BCDE92631C2E90006EFDD5B
:1020100025AA2946204602F0B7FD00287FF4A7AE86
:10202000AAF1100ABAF1100FDDE926314246E6DCCA
:1020300055460C4692460133224A2C44072BCDE9E3
:102040002634CAE9002500F36A859DF877600AF115
:10205000080A76B1269B013301340DF17701012284
:10206000072BCDE92634CAE9001200F3F2820AF107
:10207000080A109B6BB1269B013302341EA9022271
:10208000072BCDE92634CAE9001200F3ED820AF1EC
:10209000080AB9F1800F00F0E881099B0E9A9D1A99
:1020A000002D3EDD102D269ADFF81C902EDD4846CF
:1020B00053462146B9461026DDE90CA407460AE03E
:1020C000FC5400001C5500002C550000103D102D44
:1020D00003F1080315DD01321031072ACDE926216D
:1020E000C3E90076F2DD25AA5146204602F04CFDF8
:1020F00000287FF43CAE103D102DDDE9262143463B
:10210000E9DC9A463B460C464F46994601322C4440
:10211000072ACDE92624CAE9009500F3C7820AF10F
:10212000080A079BDE0500F14281269B119ACAF836
:1021300000200E9ACAF8042001331444072B279478
:10214000269300F31A820AF1080A079B5B0731D530
:102150000B9B089A9D1A002D2CDD102D269B1FDD50
:102160001026DDE90C9704E0103D102D0AF1080A55
:1021700016DD0133C74A1034072BCDE92634CAE9EE
:102180000026F1DD25AA4946384602F0FDFC00286C
:102190007FF4EDAD103D102DDDE92634C246E8DCBC
:1021A0000133BC4A2C44072BCDE92634CAE900256B
:1021B00000F36783DDE90A3208998A42ACBF9B18B5
:1021C0005B180A93002C40F0A18100232693C2469D
:1021D00028E5002A40F03187AF4B189319F0200F03
:1021E0003FD00F9D073525F00703D3E9004503F1E4
:1021F00008020F9219F0010F00F0C18054EA0503A4
:1022000000F0BD8030238DF878308DF8797049F07A
:1022100002090223C8E59BF8003001222B2134E596
:102220000F989BF8003004680B94002C00F1040018
:10223000C0F21C840F9028E549F001099BF800309A
:1022400023E59BF8003000297FF41FAD01222021F7
:102250001BE5002A40F0E186904B189319F0200FFF
:10226000BFD10F9B19F0100F53F8044B0F9340F0A0
:10227000168319F0400F00F01283A4B20025B9E7CD
:1022800049F008099BF80030FFE4002A40F0D986A5
:102290000F9D834B073525F00706D6E9000121F095
:1022A0000044149108364FF0FF3221461590054640
:1022B0000F96FEF7C9FD002840F03E8328462146D0
:1022C0004FF0FF32764BFEF7A1FD002840F034833B
:1022D000DDE91502179B1499FEF78EFD002840F0EA
:1022E0003A859DF877606F4A6F4B0321002029F0F3
:1022F0008004472FD8BF1A46CDE9081007941192E1
:102300000E911290C8E5002A40F09F8649F010090E
:1023100019F0200F7FF4F7AD0F9B19F0100F53F851
:10232000044B0F9340F0BD8219F0400F00F0B982CA
:1023300024B2E517F0E59BF800702A2F0BF101009D
:1023400000F04086A7F13003092B834600F24C854C
:1023500000201BF8017B00EB800003EB4000A7F19D
:102360003003092BF5D9099092E49BF8003049F02D
:1023700004098AE449F080099BF8003085E40223CF
:1023800012E5002A40F06586002F3FF4E9AC0023F7
:1023900001221E468DF877300993129328AB0892DC
:1023A0008DF8A070CDF81C900E92119304E6652F65
:1023B00040F3EE80DDE91502179B1499FEF712FD3C
:1023C000002800F07E81269B384ACAF8002001339D
:1023D00001340122072BCDE92634CAF8042000F38A
:1023E000F1830AF1080A1F9B139A279C934280F2FB
:1023F0004382269B1A9ACAF80020199ACAF8042028
:1024000001331444072BCDE9263400F352830AF13B
:10241000080A139B5D1E002D7FF797AE102D269A9C
:10242000DFF88C9040F3A783234610264C460D9F7F
:10243000DDF8309005E00AF1080A103D102D40F358
:10244000988301321033072ACDE92623CAE90046D2
:10245000F1DD25AA4946384602F096FB00287FF4B4
:1024600086ACDDE92623C246E7E70B9B089A9D1A56
:10247000002D7FF712AE102D269ADFF8349039DD4B
:10248000484653462146B9461026DDE90CA40746C6
:1024900015E000BF1C550000E8540000FC5400008B
:1024A000FFFFEF7FDC540000D854000018550000F7
:1024B0002C550000103D102D03F1080315DD0132ED
:1024C0001031072ACDE92621C3E90076F2DD25AADD
:1024D0005146204602F058FB00287FF448AC103DDE
:1024E000102DDDE926214346E9DC9A463B460C46A1
:1024F0004F46994601322C44072ACDE92624CAE9E1
:10250000009500F342830AF1080AC6E525AADDE931
:102510000C1002F039FB00283FF457AE27E425AA3F
:10252000DDE90C1002F030FB00287FF420AC1F9B8B
:10253000279CC2461BB9139A002A00F07C83269A76
:102540001A99CAF800101999CAF8041001320C44FB
:10255000072A2794269200F357840AF1080A002BD1
:10256000C0F29084139B119901321C44072ACDE9D3
:102570002624CAE900137FF7E6AD25AADDE90C1091
:1025800002F002FB00287FF4F2AB279CC246DCE598
:10259000139A269B012A04F1010403F101050AF1B3
:1025A000080640F347810123119ACAF80020072D3D
:1025B000CDE92654CAF8043000F3BF82199B1A9A59
:1025C00001351C44072DCDE92654C6E9002300F34C
:1025D000C08208366F1C0E970997139F179B14999A
:1025E000DDE91502013F06F1080AFEF7FBFB0028B2
:1025F00040F0E0803C44119B7760099F27940133B1
:10260000072F3360269700F3448206F11003AA1CBB
:10261000564609929A461B9A72601444099A279466
:1026200021AB072A269233607FF78FADA5E7012BF8
:10263000CDF81C907FF487AC002D08BF0A2C80F0E9
:10264000488142AB303403F8414D119301230E937E
:1026500097E425AADDE90C1002F096FA00287FF431
:1026600086AB279CC24604E525AADDE90C1002F0E2
:102670008BFA00287FF47BAB279CC24609E5DDF886
:1026800060C04246230904F00F0043EA057329099C
:102690001C460D461CF8003002F8013D54EA0503C3
:1026A000F0D1A8EB020311920E936AE425AADDE9AA
:1026B0000C1002F069FA00287FF459AB279CC2463F
:1026C0002FE51F9B002B40F36C82DDE91232934211
:1026D000A8BF1346002B1D460EDD269B119ACAF893
:1026E000002001332C44072B2794CAF8045026936A
:1026F00000F326830AF1080A129B002DA8BF5B1B7A
:10270000002B1D4600F38B811F9B139A9342C0F24E
:10271000F181079AD10700F1ED81139A1298D31A2B
:10272000151A9D42A8BF1D46002D0FDD269A11994E
:10273000CAF80450013201442C44072ACAF8001098
:10274000CDE9262400F342830AF1080A002DACBF2C
:102750005D1B1D46002D7FF7F8AC102D269ADFF883
:10276000689640F30882234610264C460D9FDDF8FC
:10277000309005E00AF1080A103D102D40F3F98170
:1027800001321033072ACDE92623CAE90046F1DDDC
:1027900025AA4946384602F0F7F900287FF4E7AA4F
:1027A000DDE92623C246E7E7099B0E93CDF8448076
:1027B000FFF7E7BB002F7FF72EAF102FDFF808964B
:1027C00040F3FB83334622464E464FF0100ADDE9C4
:1027D0000D45DDF8309005E00833103F102F40F331
:1027E000FB8101351032072DCDE92652C3E9006A7D
:1027F000F2DD25AA4946204602F0C6F900287FF4FA
:10280000B6AADDE926524346E7E70F9B19F0100F01
:1028100053F8044B0F9378D000250123FFF7C4BA77
:102820000F9A52F8044B0F9219F010027CD0002539
:10283000FFF7BABA079AD2073FF5B5AE0122119950
:10284000CAF80010072DCDE92654CAF8042000F379
:102850002081023309930AF1100ADCE6302B00F0E4
:102860004381119A0239302302F8013CA8EB01039D
:102870000E931191FFF785BB079BDD073FF5B9ADBF
:1028800063E425AADDE90C1002F07EF900287FF44C
:102890006EAA279C8EE4CDF84480FFF772BB00251A
:1028A000A8E4E517002C75F10003BFF63AAB099BCD
:1028B00064424FF02D0665EB450501338DF87760D6
:1028C0007FF435AB002D08BF0A2CCDF81C90FFF427
:1028D000B8AEC146204629460A220023FEF7F2FA86
:1028E000303209F8012D2046294600230A22FEF73E
:1028F000E9FA04460D4654EA0503EBD1A8EB0903B7
:10290000CDF844900E93FFF73CBB19F0400F18BF71
:10291000A4B200250123FFF747BA0A9A1046D1173F
:10292000C3E90001FFF77EB919F040031CBF13464D
:10293000A4B20025FFF738BA159C22462046149C05
:1029400023462146FEF780FA002840F02283099AA8
:1029500027F02003541C089300F01A82472B00F044
:102960006F8149F480730793DDE914361D1EB6BFED
:1029700003F1004500232D23662F109300F00B82F6
:10298000462F00F06282089B452B32462B4600F012
:102990005D8123A820A9099C049003911FA802210E
:1029A0000290019400910D9800F006FC672F1190A1
:1029B00040F0308319F0010F00F06F81119B099AEC
:1029C0009C18169A179B30462946FEF70BFA0028EA
:1029D00000F0D2812346119A9B1A13931F9B1293E6
:1029E000089B472B00F06281662F40F06681129BA6
:1029F000002B099B40F3D982002B40F0C08219F0D4
:102A0000010F40F0BC82129B08930E93109B002B89
:102A100040F07E8109939DF87760FFF73DBA102B57
:102A2000269ADFF8A49340F3EF80234610264C4605
:102A30000D9FDDF8309005E00AF1080A103D102DD9
:102A400040F3E08001321033072ACDE92623CAE99A
:102A50000046F1DD25AA4946384602F095F80028DF
:102A60007FF485A9DDE92623C246E7E764420B949B
:102A70000F907CE440210D9801F0C4FA0C9B186083
:102A80001861002800F0CD820C9A40235361FFF7B3
:102A9000B8B825AADDE90C1002F076F800287FF41A
:102AA00066A9DDE92634013309930DF1D00A4646C3
:102AB000B1E525AADDE90C1002F066F800287FF4E4
:102AC00056A9279CC246A4E4099B119E0996062B91
:102AD00028BF062308930E93B94B0F95CDF81C9091
:102AE00012961193FFF7D8B9119BA8EB03030E932D
:102AF000FFF747BA269A1A99CAF800101999CAF826
:102B0000041001320C44072A2794269200F32881EE
:102B10000AF1080A01E60A9A1A60FFF783B825AAA3
:102B2000DDE90C1002F030F800287FF420A99DF8B0
:102B30007760279CC246FFF78CBA25AADDE90C1006
:102B400002F022F800287FF412A9DDE92654464657
:102B500034E525AADDE90C1002F016F800287FF410
:102B600006A9DDE92654464634E5012B7FF4EBA99E
:102B700067E5A1461C4601322C44072ACDE92624EC
:102B8000CAE900957FF7DFAAF7E425AADDE90C1072
:102B900001F0FAFF00287FF4EAA8279CC246FFF75D
:102BA0007CBA269A8749CAF8001001320134012103
:102BB000072ACDE92624CAF804103FF7B0AC0AF181
:102BC000080AB7E425AADDE90C1001F0DDFF0028B2
:102BD0007FF4CDA8C24606E4B1461E466B1C1446DF
:102BE000099306F10802099B26933C44072B27947E
:102BF000C6E900973FF74DAF0133099302F1080A88
:102C0000164608E5A1461C4601322C44072ACDE9A8
:102C10002624CAE9009500F32A810AF1080A73E51F
:102C200011980994FDF74CFCCDF81C90CDE90E05E8
:102C30000346FFF72BB9079AD0077FF586AA7EE4F3
:102C4000002A134608BF012309938AE60999013136
:102C50000C460E9123A820A9049003911FA80221DD
:102C60000290019400910D9800F0A6FA1190472F60
:102C700040F0C88119F0010F00F0BD81119B0E9A40
:102C8000462F03EB02047FF49CAE119B1B78302B84
:102C900000F05C811F9B1C4493E61F9A239B1292B9
:102CA000119A9B1A1393089B472B06D1129BDA1C8F
:102CB00002DB099A9A4232DA023F129B8DF8847045
:102CC000013B002B1F93BDBF129BC3F101032D22BB
:102CD0002B22092B8DF8852000F30581303330221B
:102CE0008DF887308DF8862022AB21AA9B1A139A83
:102CF0001B93012A13440E9340F337810E9B199ABC
:102D000013440E9323EAE3730893002312937DE6A2
:102D10002D2600238DF877600993FFF7C0B8DDE911
:102D200012318B427EDB19F0010F00F00981129BFA
:102D3000199A13440E9323EAE3730893672765E611
:102D400025AADDE90C1001F01FFF00287FF40FA871
:102D5000279CC246D0E42D268DF87760FFF7C3BAD2
:102D600025AADDE90C1001F00FFF00287EF4FFAF6B
:102D70001F9B279CC246D0E4239BA342BFF42BAEEB
:102D800030215A1C23921970239B9C42F9D822E6C9
:102D900006230993E5E523A820A9099C0490039143
:102DA0001FA803212B4601940290324600910D98F2
:102DB00000F002FA2346119004190E9365E700BF54
:102DC00010550000185500002C55000025AADDE91B
:102DD0000C1001F0D9FE00287EF4C9AF1F9B139A96
:102DE000279CD31AC246B1E400230993FEF750BFD3
:102DF000099B08930E9309900F95CDF81C901290A3
:102E00009DF87760FFF748B825AADDE90C1001F0BE
:102E1000BBFE00287EF4ABAF1F9BDDE92624C24633
:102E2000FFF79DBB199A139B1344129A0E93002A25
:102E300006DC129B0E9AC3F101031A4413460E924C
:102E400023EAE37308936727E0E523A820A9099CF8
:102E5000049003911FA80321029032462B4601944F
:102E600000910D9800F0A8F90E94119006E725AA9C
:102E7000DDE90C1001F088FE00287EF478AF279C75
:102E8000C24641E45D421033DFF8E4911FDA234685
:102E900010260D9F4C4604E00AF1080A103D102D43
:102EA00013DD01321033072ACDE92623CAE9004693
:102EB000F2DD25AA0C99384601F066FE00287EF462
:102EC00056AFDDE92623C246E8E7A1461C4601329B
:102ED0002C44072ACDE92624CAE900957EDC0AF1B4
:102EE000080AFFF73FBB0DF1930420465D4D00E05B
:102EF0001046A5FB0312D20802EB8201A3EB4103AB
:102F000003F130011346092B00F8011C00F1FF32D8
:102F1000EEDC30330238D9B2844202F8011C76D993
:102F20000DF18600134601E013F8011B00F8011BA8
:102F30009C42F9D125AB9B1A0DF186021344D4E6CD
:102F400023EAE37208920E9367275FE5169A179BB0
:102F500030462946FDF746FF00287FF49BAE0E9BC6
:102F6000C3F101031F931C442BE519F001031293D5
:102F70007FF4C4AE0E9B23EAE373089346E5129BED
:102F8000199A1344099A1A4422EAE2730E9208939A
:102F90003CE5149B344A002BB6BF2D269DF8776084
:102FA0008DF87760314BFFF7A0B943B919F0010FE5
:102FB00005D1012308930E9328E5524613E6199B89
:102FC0000133DFE70F9D9BF801302C68834644EA0C
:102FD000E474281D09940F90FEF757BE25AADDE979
:102FE0000C1001F0D1FD00287EF4C1AEDDE92624ED
:102FF000C246FFF7B7BA1F9A239B1292119A9B1AE7
:10300000139353E60E9B119A13441C46D9E40DF119
:1030100086036AE6099B0E9329E68DF87710FFF781
:103020001BB90D9A0C2313604FF0FF330A93FEF780
:10303000A7BE8DF87710FEF762BF8DF87710FFF707
:10304000CBB88DF87710FFF723B98DF87710FFF71D
:103050005DB98DF87710FFF797B98DF87710FEF707
:1030600025BF00BFCDCCCCCCE4540000E054000020
:103070002C550000024B13B1024800F005B8704710
:1030800000000000AD3F0000002301461A4618462C
:1030900001F0F4BD2DE9F04F03690F69BB4283B025
:1030A000C0F28680013F01F1140900F1140A59F8B9
:1030B00027205AF82730BC000132B3FBF2F80AEBA4
:1030C0000403009409EB040B0193B8F1000F38D00E
:1030D00000252E46CE46D4465EF8044BDCF8003080
:1030E000A2B208FB0255220C2C0C08FB0242ADB226
:1030F000751B96B2C6EB134615FA83F306EB23460F
:103100009BB243EA0643F3454FEA12454CF8043BB1
:103110004FEA2646E0D2009B5AF803308BB9019A59
:10312000131F9A450CD252F8043C4BB9A2F1080384
:1031300002E01A68043B1AB99A4507F1FF37F8D341
:103140000761044601F024FC00282DDB08F101088A
:103150005546002359F8041B28688AB29A1A0B0CAA
:1031600012FA80F2C3EB104303EB224392B242EA1D
:103170000342CB4545F8042B4FEA2343EAD25AF8E1
:1031800027200AEB87037AB91A1F92450BD253F80E
:10319000042C42B9083B02E01A68043B1AB99A456C
:1031A00007F1FF37F8D32761404603B0BDE8F08F41
:1031B000002003B0BDE8F08F2DE9F04F016C97B00F
:1031C00014461D468346CDE9024549B1426C4A602A
:1031D000012393408B6001F0EBF90023CBF84030E2
:1031E0002E1E239AB4BF012300231360784BBCBF6B
:1031F00026F000460396B34300F0A880DDE902897B
:103200000022404649460023FDF7ECFD054678B113
:10321000229A01231360249B002B00F0C4806D4B85
:10322000249A1360013B0493049817B0BDE8F08F13
:1032300014AA15ABCDE90032584642464B4601F080
:1032400039FC340D824640F0A380DDE914542C444F
:1032500004F23243202B40F31784C3F140039E4015
:10326000029B04F2124023FA00F03043FDF7D8FA33
:1032700001238046013CA1F1F87912930022564BBC
:1032800040464946FDF78EF94BA3D3E90023FDF7ED
:1032900041FB4BA3D3E90023FDF786F90646204600
:1032A0000F46FDF7CDFA48A3D3E90023FDF732FB23
:1032B00002460B4630463946FDF776F906460F467C
:1032C000FDF7D8FD00220590002330463946FDF772
:1032D00093FD002840F06E82059E162E00F25F825C
:1032E0003E4B03EBC603D3E90001DDE90223FDF702
:1032F000A1FD002800F0C483731E059300230A93E8
:103300002C1B059BB4F1010846BFC4F101094FF025
:1033100000084FF00009002BC0F244829844099342
:1033200000230893209B092B60D8052B40F3AA8328
:10333000043B20930025209B023B032B00F28D844D
:10334000DFE813F0C903A903D303EA04229A42F287
:103350000F731360029B7BB9C6F3130666B9249BF7
:10336000002B00F012861E4B04930833249A049815
:10337000136017B0BDE8F08F249B2BB9194B049351
:10338000049817B0BDE8F08F164B04930333EDE7B4
:10339000C9F3130343F07F591295A4F2FF3449F4A3
:1033A0004019149D6AE7104B0493049817B0BDE8C8
:1033B000F08F00BFAFF3008061436F63A787D23FF8
:1033C000B3C8608B288AC63FFB799F501344D33F14
:1033D0000000F07F195500000000F83F785500000C
:1033E0003C55000048550000185500004FF0FF34D0
:1033F0000125CDE906450023209321930021CBF838
:1034000044100B94584601F0ADF80E2C0490CBF804
:10341000400000F2F980002D00F0F680DDE9023472
:1034200005991D4626460029CDE90C5640F3D38365
:103430009A4B01F00F0203EBC203D3E900230C11F6
:10344000CDE90223E30640F18884954B31462846B6
:10345000D3E90823FDF788FBCDE90E0104F00F0442
:1034600003267CB1DDE902018D4DE70704D5D5E9DE
:1034700000230136FDF74EFA641005F10805F4D17A
:10348000CDE90201DDE90223DDE90E01FDF76CFB68
:10349000CDE902010A9B43B10022824BDDE9020122
:1034A000FDF7AAFC002840F0EB843046FDF7C8F990
:1034B000DDE90223FDF72EFA7B4B0022FDF774F8BD
:1034C000069B0646A1F15077002B00F00A84059B6D
:1034D0001393069B0E93DDE90201FDF7CBFC0E9AD8
:1034E0006E4B03EBC20353E9023400F13005CDE922
:1034F0001034FDF7A5F902460B46DDE90201CDE9DE
:103500000267FDF74FF8049B064607985C1CEDB276
:103510000F46DDE91023002800F0458400206349B0
:10352000FDF722FBDDE90223FDF73CF8049A3B4658
:1035300015703246CDE90201FDF77CFC002840F011
:10354000EF8432463B4600205649FDF72BF80246F1
:103550000B46DDE90201FDF76DFC002840F0E58433
:103560000E9901294CD0049ACDF838901144CDF829
:103570004080DDE90289CDF808A08A460CE00020F1
:103580004849FDF70FF842464B46FDF735FC002849
:1035900040F0C98454452DD0404649460022444B52
:1035A000FDF7B8F90022424B80468946304639463D
:1035B000FDF7B0F90F460646FDF75CFC0546FDF742
:1035C0003FF902460B4630463946FCF7EBFF3035F3
:1035D000EDB242464B4604F8015B06460F46FDF746
:1035E0000BFC32463B460028C9D0139BDDF808A0EF
:1035F000059319E2DDF83890DDF84080DDF808A089
:10360000DDE90C34CDE90234159B002BC0F2AD800E
:10361000059A0E2A00F3A980204B03EBC203D3E9DD
:103620000089219B002BC0F2B382DDE9026742468C
:103630004B4630463946FDF797FAFDF71BFC054629
:10364000FDF7FEF842464B46FDF764F902460B468D
:1036500030463946FCF7A6FF049A05F13003137093
:10366000069B012B06460F4602F1010453D00022AF
:103670000F4BFDF74FF90022002306460F46FDF7DA
:10368000B1FB002840F0D081CDF808A0DDF818A0EB
:10369000CDF818B0DDF810B017E000BF7855000085
:1036A000505500000000F03F00001C400000E03FCB
:1036B00000002440FDF72EF90022002306460F46A5
:1036C000FDF790FB002840F0318342464B463046E0
:1036D0003946FDF749FAFDF7CDFB0546FDF7B0F891
:1036E00042464B46FDF716F902460B463046394630
:1036F000FCF758FF05F1300C04F801CBA4EB0B0CE0
:10370000E24506460F464FF00002B84BD2D1DDF835
:1037100008A0DDF818B032463B4630463946FCF783
:1037200043FF42464B4606460F46FDF783FB58B91A
:1037300042464B4630463946FDF754FB002800F020
:103740007381EB0740F1708114F8015C049A05E085
:103750009A4200F01E8313F8015C1C46392D04F1D7
:10376000FF33F5D001351D705EE1079A92B3209AC0
:10377000012A40F30282069B5F1E089BBB42C0F2F7
:10378000DA82DF1B069B002BC0F2F9824C4698447C
:1037900099440121584600F0A5FF05461DE001238C
:1037A0000A93ADE5059BA9EB03095B42089300234F
:1037B0000993B7E5DDF814804046FDF741F832463D
:1037C0003B46FDF70FFB00287FF486AD08F1FF3381
:1037D000059381E5089F079D4C46002C0BDDB8F151
:1037E000000F08DD44452346A8BF4346A9EB030963
:1037F000E41AA8EB0308089B6BB1079A002A00F0B3
:103800008E82DE1B002F40F08E8151463246584694
:1038100001F018F882460121584600F063FF099A2A
:103820000646002A40F01881209B012B40F360815E
:103830000120404410F01F0000F00981C0F1200376
:10384000042B40F3A683C0F11C008144044480444F
:10385000B9F1000F05DD51464A46584601F042F8DD
:103860008246B8F1000F05DD31464246584601F068
:1038700039F806460A9B002B73D1069B002B40F3B8
:103880000982079B002B00F08580002C00F36081EB
:10389000099B002B40F0C881A846029A049F02F0C1
:1038A00001020992069A7B1E1A440792314650463D
:1038B000FFF7F0FB294681460890504601F068F872
:1038C000314602904246584601F07EF8C3680446ED
:1038D00009F130090146002B40F0D781504601F034
:1038E00057F821460690584600F062FE069B33B911
:1038F000209A22B9099B002B00F01B83209B029A7F
:10390000002AC0F2208205D1209A1AB9099A002A09
:1039100000F01982002B07F1010400F32582079BB8
:1039200087F80090BB4200F02E82514600230A2205
:10393000584600F047FE4545824629464FF00003B1
:103940004FF00A02584600F09A8100F03BFE4146D3
:10395000054600230A22584600F034FE27468046DA
:10396000A4E73146504601F013F8002885DA059F98
:10397000514600230A225846013F059700F022FED7
:10398000079B8246002B40F0E4820B9B002B40F308
:10399000EC820693DDF81080069F444602E000F0BA
:1039A00011FE824631465046FFF774FB00F13009A4
:1039B00004F8019BA4EB08039F424FF00A024FF06A
:1039C000000351465846EADC002302935146012287
:1039D000584600F087FF3146824600F0D9FF0028A4
:1039E00014F8012C40F3BB80049907E00000244048
:1039F000994200F05C8113F8012C1C46392A04F12D
:103A0000FF33F5D001321A703146584600F0D0FD30
:103A100055B1029921B1A94202D0584600F0C8FD23
:103A20002946584600F0C4FD5146584600F0C0FDF6
:103A30000022059B2270229A01331360249B002BE5
:103A40003FF4F2AB04981C6017B0BDE8F08F1C2067
:103A5000814404448044FBE60146584600F0F2FEEF
:103A6000209B012B064640F3F38000230993336922
:103A700006EB8303186900F0E5FDC0F12000D8E6ED
:103A80000A903DE4012556E4C3F12006029B03FAA7
:103A900006F0FFF7EBBB00230793059B219A134425
:103AA0000B930133012B1E460693B8BF012600215C
:103AB000172ECBF84410069C7FF7A4AC01220423F8
:103AC0005B0003F11400B042114602F10102F7D984
:103AD000CBF8441096E400230793219B002B40F37E
:103AE000ED800B9306931E46E1E701230793F4E76D
:103AF000029B002B7FF49CAEDDE90212C2F313039C
:103B0000002B40F0998122F000431B0D1B0523B1CF
:103B100009F1010908F101080123099A0993002A12
:103B20003FF486AEA3E73A462946584600F08AFE9F
:103B3000524601460546584600F0DEFD514607460E
:103B4000584600F035FDBA46002E3FF464AE5CE600
:103B500029462246584600F0C5FE054698E607D19C
:103B600019F0010F7FF440AF02E014F8022C1C465C
:103B7000302A04F1FF33F8D046E7129A002A00F009
:103B8000538103F233434C4698449944089F00E61E
:103B9000069B002B3FF749AD40F0BB800022B24BA3
:103BA00040464946FCF7B6FEDDE90223FDF738F949
:103BB000069E3546002875D1059A01320592049A71
:103BC00031231370541C3146584600F0F1FC002D8F
:103BD0007FF426AF28E700F03F81059B5C42A34BB2
:103BE00004F00F0203EBC203D3E90023DDE90C016B
:103BF000FCF790FE2411CDE9020100F0BB819C4D41
:103C000000230226E20705D5D5E90023FCF782FE52
:103C100001360123641005F10805F3D1002B3FF4B0
:103C200039ACCDE9020135E46968584600F09AFCE8
:103C30002B6902339A00044605F10C010C30FCF7A5
:103C40008FFB21460122584600F04CFE804624E6B8
:103C5000029B002B3FF450AF07E70024CBF8444011
:103C60002146584600F07EFC4FF0FF330B9306933D
:103C7000012304902194CBF840000793C4E400F0A2
:103C8000A1FC27460546804610E6584600F090FC09
:103C9000012334E6209B022B7FF7F3AD069B002B1C
:103CA00000F0CC80219B049CDB4305938BE7059AB5
:103CB00001320592049A31231370A5E60124219460
:103CC0000694FFF79BBB3046FCF7BAFDDDE9022303
:103CD000FCF720FE0022674BFCF766FC0646A1F1CC
:103CE0005077DDE9020100225F4BFCF75BFC3246B6
:103CF0003B46CDE90201FDF79DF8002846D132464A
:103D000007F10043DDE90201FDF776F800283FF4F2
:103D100077AC00263546C5E701230793BDE651463B
:103D2000089A584600F08EFD824674E5DDF808A03A
:103D3000DDF818B078E6089B099AFB1A1A44CDE919
:103D4000087200271EE5002B07F1010400F3BC8078
:103D5000029587F80090454656E6DDE90C230226D9
:103D6000CDE90E23FFF77DBBB9F1390F00F0BE801E
:103D700009F10109029587F80090454644E6069B43
:103D8000A9EB030405E5029545461FE600263546E6
:103D900012E7049A30231370059B14F8015C013379
:103DA00005931346DEE4DDE90201FCF7B3FD049B55
:103DB0001D700E9B012BCDE9020123D00E9B049AAE
:103DC000CDF838901344C146984600222A4B30461D
:103DD0003946FCF79FFD0F460646FDF74BF80546B2
:103DE000FCF72EFD303502460B4630463946FCF7CF
:103DF000D9FB04F8015B444506460F46E5D1C846A9
:103E0000DDF838901D4B0022DDE90201FCF7CCFB08
:103E100032463B46FCF7F0FF00286DD0139B05931C
:103E200014F8015C049A99E4149B089FC3F13603CB
:103E30004C4698449944ACE400236EE63146052292
:103E4000584600F0BFFB01460646504600F0A0FD74
:103E500000283FF7B1AE25E7DDE90C340226CDE9B5
:103E60000234FFF717BB00BF000014407855000074
:103E70005055000000001C40000024400000E03FBE
:103E8000069B002B3FF41FAF0B9C002C7FF7B8ABB9
:103E90000022424BDDE90201FCF73CFDCDE90201C5
:103EA000701CFCF7CDFCDDE90223FCF733FD3C4B35
:103EB0000022FCF779FB059B0E94013B0646A1F11D
:103EC00050771393FFF707BB51460122584600F085
:103ED00009FD3146824600F05BFD002832DDB9F174
:103EE000390F03D0089B03F1310931E739220295DC
:103EF0003A704546049981E5DDE90223002029490D
:103F0000FCF750FB32463B46FCF794FF10B9FFF735
:103F100077BB144614F8013C302B04F1FF32F8D083
:103F2000139B059380E5DDF808A0139B0593049A85
:103F300014E4B9F1390F07F10104D7D0029B002B2B
:103F4000D0DC05E77FF404AF19F0010F3FF400AFB8
:103F5000C5E7294600230A22584600F033FB0B9B95
:103F6000002B054609DD06938FE4209B022B09DC1C
:103F70000B9B0EE50226FFF78DBA209B022B01DC7E
:103F80000B9BF0E70B9B069388E6074B0493FFF728
:103F90004BB93FF45DACC0F13C0059E50000244052
:103FA00000001C400000E03F3C55000038B50A4CC2
:103FB0000A4D641BA4100AD004F18043013B05EBB9
:103FC0008305013C55F804399847002CF9D1BDE828
:103FD000384001F075BA00BF00000000000000008A
:103FE000044A054B1268506B002808BF1846F03091
:103FF000704700BF0000002044080020704700BF49
:10400000704700BF2DE9F04F01F10B05162D83B06D
:10401000064623D8102900F2B98000F097FA10253F
:1040200018230220C54F3B44A3F108025C68944268
:1040300000F06681636823F003032344D4E902514E
:104040005A68E96042F001028D6030465A6000F023
:1040500083FA0834204603B0BDE8F08F35F0070539
:1040600000F19480A94200F2918000F06FFAB5F55A
:10407000FC7FC0F083816B0A00F08F80042B00F27C
:104080004681AB0903F1390003F1380CC300AB4F93
:104090003B44A3F108015C68A14206D10CE0002A70
:1040A00080F21D81E468A14206D0636823F0030317
:1040B0005A1B0F2AF3DD60463C69DFF894C2644561
:1040C00071D0636823F003035A1B0F2A00F3448165
:1040D000002AC7E904CC80F22681B3F5007F80F086
:1040E0006981DB08591C7A6857F83180C4F8088068
:1040F0004FF0010E9B100EFA03F307EBC10E1343B2
:10410000AEF10802E2607B6047F83140C8F80C402D
:104110008210012494409C424BD81C4206D120F0CE
:10412000030064001C4200F10400FAD007EBC00950
:10413000CE468046DEF80C309E4507D122E1002AAB
:1041400080F22981DB689E4500F01C81596821F0CE
:1041500003014A1B0F2AF2DDD3E9028E5C1945F0F8
:1041600001055D6042F00105C8F80CE03046CEF86C
:104170000880C7E90444C4E902CC65605A50019341
:1041800000F0EAF9019B03F1080463E700240C2323
:104190002046336003B0BDE8F08F4FF40073402039
:1041A0004FF03F0C73E77B688210012494409C42DF
:1041B000B3D9BC68636823F00309A94503D3A9EB0D
:1041C00005030F2B7BDC5E4BDFF888A11A68DAF859
:1041D0000030013305EB020800F0488108F58058F3
:1041E00008F10F0828F47F6828F00F084146304690
:1041F00000F0B8FCB0F1FF3F834600F0048104EB0F
:104200000900584500F2FD804E4A1368434413608C
:1042100000F04D81DAF8001001311BBFABEB00005C
:104220001B18CAF800B013601BF0070300F03481BC
:10423000C3F10801C3F580538B440833D844C8F355
:104240000B08A3EB080841463046019200F08AFCB7
:10425000431C019A00F04681A0EB0B01414441F060
:1042600001011368C7F808B04344BC42CBF80410FE
:10427000136015D0B9F10F0F40F230816068A9F1D9
:104280000C0121F0070100F0010004EB010C0843D0
:104290004FF0050E0F296060CCE901EE00F23A8183
:1042A000294A2A481168BC688B42016888BF13609C
:1042B00062688B4222F0030288BF0360A7E06219A4
:1042C00043F0010345F0010565603046BA60536074
:1042D00000F042F90834204603B0BDE8F08F2344D3
:1042E000E1685A68A56842F00102E96030468D60D5
:1042F0005A6000F031F90834204603B0BDE8F08F71
:10430000DC68A34208BF02303FF4D6AE92E6142B1D
:1043100071D9542B00F2AD802B0B03F16F0003F128
:104320006E0CC300B3E6234430465A6842F00102E3
:104330005A60083400F010F98CE600BF3404002005
:10434000FC0B0020CC0B0020F40B0020F80B00200D
:104350003C0400203C080020611945F0010E42F0A9
:104360000105C4F804E03046C7E90411C1E902CCF4
:104370004D60E25000F0F0F808346BE6E80805F113
:1043800008034FE608F1010818F0030F0EF1080EBC
:104390007FF4D0AE52E019441C464A68DB6854F8FA
:1043A000085F42F001024A603046EB609D6000F019
:1043B000D3F84FE65A0A042A35D9142A6FD802F1E5
:1043C0005C01C9005B3207EB010E7958AEF1080EB3
:1043D0008E4558D04A6822F003029A4202D9896871
:1043E0008E45F7D1D1F80CE07B68C4E9021ECEF807
:1043F0000840CC608CE603F15C0003F15B0CC30069
:1044000045E6BC4272D0BC68626822F00302954265
:10441000A2EB050302D80F2B3FF751AF304600F057
:104420009BF8002416E69A0902F13901C9003832D6
:10443000C9E7D9F80090994540F0838010F0030F48
:10444000A9F1080300F1FF30F3D17B6823EA0403EC
:104450007B6064009C423FF6ACAE1CB9A9E66400E8
:1044600008F104081C42FAD040465FE608F1100843
:10447000BCE6B3F5AA7F26D8EB0B03F1780003F175
:10448000770CC30003E67B6892104FF0010808FA2E
:1044900002F213437B60A8E74FF48053CEE6542A20
:1044A00029D81A0B02F16F01C9006E328BE7C0F3F5
:1044B0000B0100297FF4AEAE09EB0802B96842F0A7
:1044C00001024A60ECE640F2545293421CD8AB0C15
:1044D00003F17D0003F17C0CC300D8E50123CBF888
:1044E00004309BE701214FF00008BAE6164A136832
:1044F000434413608EE6B2F5AA7F14D8DA0B02F1BA
:104500007801C90077325EE74FF47E737F204FF069
:104510007E0CBCE504F108013046019200F092FCEB
:10452000019A1368BCE640F254518A4205D89A0CAD
:1045300002F17D01C9007C3245E74FF47E717E2295
:1045400041E77B6885E700BFCC0B00200148FFF7FF
:1045500055BD00BF3C0C00200148FFF751BD00BF16
:104560003C0C0020C36C70B505460C464BB153F8AB
:10457000240080B1026843F824200023C0E90333FB
:1045800070BD2122042100F0D9FB0346E864002815
:10459000EDD1002070BD012101FA04F6721D2846FC
:1045A000920000F0CBFB0028F3D0C0E90146E4E71D
:1045B00031B1C36C4A6853F82200086043F82210F6
:1045C000704700BFF0B50C6983B00D46064601F197
:1045D000140C0027DCF8000081B202FB0133010C4F
:1045E000180C02FB01019BB2013703EB0143BC42F3
:1045F0004CF8043B4FEA1143ECDC3BB1AA68A24201
:1046000007DD05EB8402013453612C61284603B0B9
:10461000F0BD6968019301313046FFF7A3FF2A69B5
:10462000023205F10C01074692000C30FBF798FEB0
:10463000F26C6968019B52F82100286042F8215011
:104640003D46DEE7020C12040346C2B90304102003
:1046500013F07F4F04BF1B02083013F0704F04BFEC
:104660001B01043013F0404F04BF9B000230002BAD
:1046700004DB5B0001D5013070472020704700202B
:10468000E6E700BF036813F00702014607D0DA0728
:104690001FD498071FD55B080B600120704798B2A4
:1046A000A0B1104613F0FF0F04BF1B0A08301A0711
:1046B00004BF1B0904309A0704BF9B080230DA07C5
:1046C00002D45B080BD001300B6070471B0C10202C
:1046D000E8E7002070479B080B600220704720200D
:1046E000704700BF10B50C460121FFF73BFF0122C8
:1046F000C0E9042410BD00BF2DE9F04F0E69146914
:10470000A64283B00F46154604DA32462F462646A7
:104710000D461446D7E9011306EB04084345B8BF1C
:104720000131FFF71FFF00F1140909EB880EF14575
:10473000009005D24B46002243F8042B9E45FBD83F
:1047400005F1140A0AEB840407F11403A24503EBF4
:10475000860C61D2641B153C24F00304CDF804E000
:10476000A24405F110029E4605E02D0C2BD1924586
:1047700009F104094ED052F8045F1FFA85FBBBF122
:10478000000FF2D077464E46002000E0264657F84C
:10479000041B34688BB2A5B2090C240C0BFB035329
:1047A00003440BFB014000EB134034469BB243EA49
:1047B0000043BC454FEA104044F8043BE6D8706023
:1047C00015682D0CD3D0D9F8003076461846CB4664
:1047D000002100E0A3463488000C05FB04000144DE
:1047E0009BB25C4643EA014344F8043B56F8043B61
:1047F000DBF804001B0C87B205FB037303EB1143CA
:10480000B4454FEA1341E5D89245CBF8043009F19D
:104810000409B0D1DDF804E0B8F1000F0BDD5EF85B
:10482000043CAEF1040E1BB105E05EF8043D13B983
:10483000B8F10108F9D10098C0F8108003B0BDE8C4
:10484000F08F00BF12F003032DE9F0411446074634
:104850002ED10D46A4101CD0BE6C96B3E3074FF0CA
:10486000000806D4641014D03068A8B10646E307E7
:10487000F8D5324629463846FFF73EFFB5B16A689B
:10488000FB6C641053F82210296043F8225005464F
:10489000EAD12846BDE8F081324631463846FFF776
:1048A0002BFF3060C0F800800646E0E70546D9E7F8
:1048B000013B0B4A52F823200023FFF783FE0546F5
:1048C000C8E701213846FFF74DFE40F271234361EE
:1048D0000122002302610646B8640360BEE700BF00
:1048E000405600002DE9F04791460A690E464FEA0E
:1048F0006914D1E9011304EB020808F101059D4296
:10490000074604DD5B009D4201F10101FADC3846F7
:10491000FFF728FE002C00F1140337DD03EB8401C0
:10492000002243F8042B8B42FBD1346906F11403B7
:1049300019F01F0903EB840C20D0C9F1200E0022CE
:1049400000E051461C688A4604FA09F414434AF808
:10495000044B53F8042B634522FA0EF2F1D34A605C
:104960000AB108F10205FB6C7268013D53F8221090
:104970000561316043F82260BDE8F087043953F8DF
:10498000042B41F8042F9C45F9D8ECE71946CCE7F5
:1049900030B40B6905460069C01A0FD19B0014356D
:1049A000143119442B4401E09D4207D253F8044DC1
:1049B00051F8042D9442F7D002D3012030BC704747
:1049C0004FF0FF30FAE700BF2DE9F04113690D69A0
:1049D000ED1A002D0E46904601F1140402F1140761
:1049E00014D19B00E2183B4401E0A24259D952F88D
:1049F00004CD53F8041D8C45F7D009D22246334626
:104A00003C46464617469846012501E0F6DB002560
:104A10007168FFF7A7FDD8F810303669C56007EB5D
:104A2000830EBC4600F1140504EB860700235CF8F6
:104A3000041B54F8048B8AB213FA88F3090C9A1AEF
:104A4000C1EB184303EB224392B242EA0342E6452C
:104A500045F8042B4FEA2343E9D8A74217D9AE46BD
:104A6000A4465CF8042B13FA82F3191401EB1241EB
:104A70009BB243EA014267454EF8042B4FEA2143BB
:104A8000EFD8E443274427F0030704373D44043DAF
:104A900022B955F8043D013E002BFAD00661BDE86D
:104AA000F0810021FFF75EFD01220023C0E904230D
:104AB000BDE8F0812DE9F041012182B01C4690460D
:104AC000DDE90865FFF74EFD2346C4F30A540746A7
:104AD000C3F313030CB143F48013B8F10002019344
:104AE0001FD002A840F8082DFFF7CCFD00282DD1DB
:104AF000DDE900237A61002B0CBF01210221BB619B
:104B00003961C4B907EB8103A0F232403060186903
:104B1000FFF798FDC0EB41102860384602B0BDE8B1
:104B2000F08101A8FFF7AEFD019B7B6101212030E0
:104B30003961002CE6D0A4F233430344C0F13500C0
:104B400033602860384602B0BDE8F081DDE900132B
:104B5000C0F1200203FA02F20A43C34001937A61D2
:104B6000C9E700BF38B5074C002305460846236057
:104B700000F092FC431C00D038BD2368002BFBD012
:104B80002B6038BD500C00202DE9F04F936883B0A6
:104B90009046002B6CD017688D6882460C460868DA
:104BA000083742E0A38913F4906F2DD0D4E904159F
:104BB00005EB4505A0EB010B05EBD575701C6D10E1
:104BC0005844A8422A4684BF05462A465B0536D586
:104BD00011465046FFF716FA00283AD05A46216986
:104BE0000190FBF7BDFBA289019B22F4906242F089
:104BF0008002A281A5EB0B0203EB0B006561236130
:104C00002060A2603546B3465A46494600F024FA71
:104C1000D8F80830A2682068551B58449E1BA56030
:104C20002060C8F808601EB3083757E90296AB4603
:104C3000002EF9D0AE42B5D23546B346E4E7504631
:104C400000F06EFA03460028D4D12169504600F0E6
:104C5000F9F80C23CAF80030A389002243F040037E
:104C60004FF0FF30A381C8E9012203B0BDE8F08F07
:104C70000020C8F8040003B0BDE8F08F2DE9F84328
:104C80002B4D0646286898460F469146FFF7B6F921
:104C9000284B1C68D4F84831002B3DD05A681F2A95
:104CA0000DDC02F1010C16BB0232C3F804C0286807
:104CB00043F82270FFF7A4F90020BDE8F8831E4BEB
:104CC0007BB34FF4C870AFF30080034648B3D4F809
:104CD00048210021C0E900214FF0010CC4F848012F
:104CE0000A46C0F88811C0F88C11002EDCD003EB06
:104CF00082010124C1F88890D3F8880194402043B0
:104D0000022EC3F88801C1F80881CDD1D3F88C11E7
:104D10000C43C3F88C41C7E704F5A673C4F84831C7
:104D2000BCE72868FFF76CF94FF0FF30C5E700BF1C
:104D300030040020D45400000000000010B502FB35
:104D400001F1FFF75FF90446D8B150F8042C22F0C6
:104D50000302043A242A1DD8132A14D900231B2A3B
:104D6000C0E900331BD9242AC0E902330ABFC0E9D5
:104D7000043300F1100200F118020023C2E90033ED
:104D80009360204610BD02460023C2E900339360C1
:104D9000204610BD0021FCF7B1FE204610BD00F1F9
:104DA0000802F1E7F8B5244F0C460646FFF7CEFBA4
:104DB000BB685D68C4F57E610F3125F003052944A9
:104DC00021F47F6121F00F01A1F58054B4F5805FDB
:104DD00007DB00213046FFF7C5FEBB682B44984235
:104DE00004D03046FFF7B8FB0020F8BD61423046E2
:104DF000FFF7B8FE01300DD0104BBA6819682D1BB3
:104E000045F001053046091B55601960FFF7A4FB0A
:104E10000120F8BD00213046FFF7A4FEBA68831ACE
:104E20000F2BDEDD064C0549246843F00103001B0F
:104E300053600860D5E700BF34040020CC0B00208D
:104E40003C080020002953D0F8B50C460646FFF771
:104E50007DFB54F804CC714F2CF00101A4F108053E
:104E60006B18B8685A68984222F0030253D01CF0BD
:104E7000010F5A6003EB02003BD154F808CC4068A4
:104E8000A5EB0C0507F1080EAC687445614400F011
:104E9000010075D0D5F80CC0C4F80CC0CCF808409F
:104EA00060B341F001036B606950B1F5007F50D3EE
:104EB0004B0A042B70D88B0903F13904E40003F189
:104EC000380238193B590838984278D05A6822F08D
:104ED00003028A4271D99B689842F7D1C368C5E939
:104EE00002039D60C5603046BDE8F840FFF734BB63
:104EF0007047406800F001000028D2D19868484C03
:104F00001144A04241F0010262D0DB68C3609860A6
:104F10006A606950C9E71CF0010F0A4407D154F8D0
:104F2000083CED1A1A44D5E90213CB6099603D4B59
:104F30001B6842F0010193426960BD6004D83A4B9E
:104F400030461968FFF72EFF3046BDE8F840FFF7FE
:104F500003BBC90878684A1C012389108B400343AE
:104F600007EBC20157F832007B600839C5E902013E
:104F700047F83250C5603046BDE8F840FFF7ECBA5C
:104F8000002845D10A44D3E9021342F00100CB6066
:104F900099606860AA50D7E7142B08D9542B1ED803
:104FA0000B0B03F16F04E40003F16E0289E703F1D8
:104FB0005C04E40003F15B0283E718468EE793107C
:104FC0007968012202FA03F30B437B60034686E70C
:104FD000C7E90455C5E902006A606950B4E7B3F552
:104FE000AA7F06D8CB0B03F17804E40003F1770223
:104FF00067E740F25452934206D88B0C03F17D04CC
:10500000E40003F17C025CE74FF47E747E2258E7F3
:1050100041F001026A60196096E700BF3404002085
:105020003C04002040080020FC0B002082B049B165
:105030005AB16BB113780B601278101C18BF0120A5
:1050400002B0704701A9002AF3D1104602B07047A0
:105050006FF00100F4E700BF8842F0B40DD98B185F
:1050600083420AD9841832B1224613F8014D02F85E
:10507000014D9942F9D1F0BC70470F2A49D940EA55
:1050800001039B0747D1A2F110031B0901F120077F
:1050900007EB031701F1100400F1100554F8106C30
:1050A00045F8106C54F80C6C45F80C6C54F8086C0E
:1050B00045F8086C54F8046C45F8046C1034BC4294
:1050C00005F11005EAD1013302F00F051B01032D94
:1050D0001944034421D91F1F0E462C46043C56F8A0
:1050E00004CB47F804CF032CF8D82C1F24F003047A
:1050F00004342344214402F00302002ABBD0013BC4
:105100000A4411F8014B03F8014F9142F9D1F0BC68
:1051100070470346F1E70346F1E72A46EDE700BF93
:105120002DE9F04F924683B0002900F0A1800D4692
:1051300080460AF10B04FFF709FA55F8042C162CE7
:1051400022F00306A5F108073ED810242146A24507
:105150003FD88E4207EB060974DAC74B986848457A
:1051600000F0AA80D9F8040020F001034B445B68EA
:10517000DB0740F18380D20734D551464046FEF725
:1051800041FF8246E0B155F8043C23F001033B4463
:10519000A0F10802934200F0F980321F242A00F2A5
:1051A0000781132A296800F2E68003462A4619601F
:1051B0005168596092689A6029464046FFF742FE5E
:1051C0004046FFF7C9F94FE024F00704002C2146C0
:1051D000BDDA4FF0000A0C235046C8F8003003B087
:1051E000BDE8F08F55F8083CA7EB030BDBF8042073
:1051F00022F00302B3188B42BFDBDA46DBF80C1057
:105200005AF8080F321F242AC1600BEB030988608B
:1052100000F2C680132A296840F2C080CBF808103B
:105220006968CBF80C101B2AA96800F2D8800BF132
:1052300010020835116069685160A96891601E46C6
:105240005F4655467B68321B0F2A03F0010322D8C4
:1052500033437B60D9F8043043F00103C9F80430CC
:105260004046FFF779F9AA46504603B0BDE8F08FF3
:10527000114603B0BDE8F04FFEF7C4BE20F00300B6
:1052800033188B4261DBD9E902121E46CA6007EB74
:1052900003099160D6E73919234342F001027B608C
:1052A0004A60D9F8043043F001030831C9F80430EA
:1052B0004046FFF7C7FDD3E7406820F00309B1443B
:1052C00004F11000814577DAD2073FF556AF55F863
:1052D000082CA7EB020BDBF8042022F00302914418
:1052E000484587DCDA46DBF80C105AF8080F321F05
:1052F000242AC160886000F2A180132A296840F244
:105300009B80CBF808106968CBF80C101B2AA968A1
:1053100000F29B800BF11002083511606968516042
:10532000A96891600BEB0401A9EB040242F00102B1
:1053300099604A60DBF8043003F001031C434046E7
:10534000CBF80440FFF708F98EE7D3073FF515AF18
:1053500055F8083CA7EB030BDBF8042022F003020E
:10536000104483198B42FFF645AFD9E90212DA46A1
:10537000CA60916042E701606B6843601B2A3AD8BB
:1053800005F1080200F10803A96810E750F8043C91
:1053900023F003031E4407EB060953E7524649E78F
:1053A000294650461E465F46FFF756FE554649E7DA
:1053B0002946FFF751FEFFE62744A9EB040949F00F
:1053C00001029F607A6055F8043C03F001031C431E
:1053D000404645F8044CFFF7BFF8AA4644E7CBF82F
:1053E0001010E968CBF81410242A10D029690BF1A9
:1053F000180210351EE7AB688360EB68C360242A8F
:1054000010D005F1100200F110032969CFE62A69D6
:10541000CBF818206A69CBF81C20A9690BF120028F
:10542000183507E72B6903616B694361A96905F1C9
:10543000180200F11803BAE652466EE729465046B4
:105440000193FFF709FE019B6CE7CBF81010E968A8
:10545000CBF81410242A04D029690BF11802103556
:105460005BE72A69CBF818206A69CBF81C20A96988
:105470000BF12002183550E73404002021B1FF2A37
:1054800004D80A7001207047084670478A230360D9
:105490004FF0FF30704700BF044A05491368002BE6
:1054A00008BF0B461844106018467047000C0020D7
:1054B000540C0020A502000075300000F8B500BFB4
:0454C000F8B500BF7C
:1054C80057454C434F4D4500256400000800002017
:1054D800494E4600696E66004E414E006E616E0090
:1054E8003031323334353637383941424344454612
:1054F80000000000303132333435363738396162D4
:105508006364656600000000286E756C6C290000F5
:1055180030000000202020202020202020202020D3
:1055280020202020303030303030303030303030B3
:1055380030303030496E66696E6974790000000059
:105548004E614E00000000000080E03779C34143FF
:10555800176E05B5B5B89346F5F93FE9034F384DD1
:10556800321D30F94877825A3CBF737FDD4F15757D
:10557800000000000000F03F000000000000244090
:1055880000000000000059400000000000408F406B
:10559800000000000088C34000000000006AF840D6
:1055A8000000000080842E4100000000D0126341FA
:1055B8000000000084D797410000000065CDCD4170
:1055C800000000205FA00242000000E87648374251
:1055D800000000A2941A6D42000040E59C30A242EF
:1055E8000000901EC4BCD64200003426F56B0C4364
:1055F8000080E03779C3414300A0D885573476430B
:1056080000C84E676DC1AB43003D9160E458E1436B
:10561800408CB5781DAF154450EFE2D6E41A4B44E0
:1056280092D54D06CFF08044F64AE1C7022DB54425
:10563800B49DD9794378EA440500000019000000B8
:105648007D00000043000000504F534958000000FF
:105658002E000000002020202020202020202828A4
:10566800282828202020202020202020202020201A
:10567800202020202088101010101010101010105A
:10568800101010101004040404040404040404108A
:105698001010101010104141414141410101010118
:1056A80001010101010101010101010101010101E2
:1056B80010101010101042424242424202020202EE
:1056C80002020202020202020202020202020202B2
:1056D8001010101020000000000000000000000062
:1056E80000000000000000000000000000000000B2
:1056F80000000000000000000000000000000000A2
:105708000000000000000000000000000000000091
:105718000000000000000000000000000000000081
:105728000000000000000000000000000000000071
:105738000000000000000000000000000000000061
:105748000000000000000000000000000000000051
:0557580000000000004C
:10576000080000200000000000000000F4020020FB
:105770005C030020C40300200000000000000000C3
:105780000000000000000000000000000000000019
:105790000000000000000000000000000000000009
:1057A00000000000000000000000000000000000F9
:1057B00000000000000000000000000000000000E9
:1057C00000000000000000000000000000000000D9
:1057D00000000000000000000000000000000000C9
:1057E00000000000000000000000000000000000B9
:1057F00000000000000000000000000000000000A9
:105800000000000000000000000000000000000098
:1058100001000000000000000E33CDAB34126DE635
:10582000ECDE05000B00000000000000000000009E
:105830000000000000000000000000000000000068
:105840000000000000000000000000000000000058
:105850000000000000000000000000000000000048
:105860000000000000000000000000000000000038
:105B90002C0C002000000000000000003404002055
:105BA000340400203C0400203C0400204404002075
:105BB000440400204C0400204C0400205404002025
:105BC000540400205C0400205C04002064040020D5
:105BD000640400206C0400206C0400207404002085
:105BE000740400207C0400207C0400208404002035
:105BF000840400208C0400208C04002094040020E5
:105C0000940400209C0400209C040020A404002094
:105C1000A4040020AC040020AC040020B404002044
:105C2000B4040020BC040020BC040020C4040020F4
:105C3000C4040020CC040020CC040020D4040020A4
:105C4000D4040020DC040020DC040020E404002054
:105C5000E4040020EC040020EC040020F404002004
:105C6000F4040020FC040020FC04002004050020B3
:105C7000040500200C0500200C0500201405002060
:105C8000140500201C0500201C0500202405002010
:105C9000240500202C0500202C05002034050020C0
:105CA000340500203C0500203C0500204405002070
:105CB000440500204C0500204C0500205405002020
:105CC000540500205C0500205C05002064050020D0
:105CD000640500206C0500206C0500207405002080
:105CE000740500207C0500207C0500208405002030
:105CF000840500208C0500208C05002094050020E0
:105D0000940500209C0500209C050020A40500208F
:105D1000A4050020AC050020AC050020B40500203F
:105D2000B4050020BC050020BC050020C4050020EF
:105D3000C4050020CC050020CC050020D40500209F
:105D4000D4050020DC050020DC050020E40500204F
:105D5000E4050020EC050020EC050020F4050020FF
:105D6000F4050020FC050020FC05002004060020AE
:105D7000040600200C0600200C060020140600205B
:105D8000140600201C0600201C060020240600200B
:105D9000240600202C0600202C06002034060020BB
:105DA000340600203C0600203C060020440600206B
:105DB000440600204C0600204C060020540600201B
:105DC000540600205C0600205C06002064060020CB
:105DD000640600206C0600206C060020740600207B
:105DE000740600207C0600207C060020840600202B
:105DF000840600208C0600208C06002094060020DB
:105E0000940600209C0600209C060020A40600208A
